:03000000020003F8
:0C000300787FE4F6D8FD75811B02004AEE
:1000EC000A103F065B4F666D7D077F6F08080001A5
:0600FC00020304050607E3
:10008F00E4F51AF51BE4F51AF51BAF1B74102FF8E6
:10009F00E6F5A074082FF8E6F5B07F057E00120094
:1000AF00CCE4F5A07F05FE1200CC051BE51B70020A
:0D00BF00051AC39408E51A940040CF80C8CC
:1000CC00E4FDFCC3ED9FEC9E5015E4FAFB0BBB006A
:0F00DC00010AEB64464A70F50DBD00010C80E48B
:0100EB0022F2
:10000F0002008FE493A3F8E493A34003F68001F278
:10001F0008DFF48029E493A3F85407240CC8C333F2
:10002F00C4540F4420C8834004F456800146F6DFC1
:10003F00E4800B01020408102040809000ECE47E65
:10004F00019360BCA3FF543F30E509541FFEE493B6
:10005F00A360010ECF54C025E060A840B8E493A37D
:10006F00FAE493A3F8E493A3C8C582C8CAC583CAA8
:10007F00F0A3C8C582C8CAC583CADFE9DEE780BE60
:0101020000FC
:00000001FF
