:0F00A5000112000A083F065B4F666D7D077F6FF3
:0700C200D288D2A8D2AF22C0
:0D00B5001200C274082512F8E6F5A080F6CE
:0300030002009266
:10009200C0E0C0D00512E512B40A03751200D0D038
:0300A200D0E03279
:03000000020006F5
:0C000600787FE4F6D8FD75811202004DF1
:100012000200B5E493A3F8E493A34003F68001F24F
:1000220008DFF48029E493A3F85407240CC8C333EF
:10003200C4540F4420C8834004F456800146F6DFBE
:10004200E4800B01020408102040809000A5E47EA9
:10005200019360BCA3FF543F30E509541FFEE493B3
:10006200A360010ECF54C025E060A840B8E493A37A
:10007200FAE493A3F8E493A3C8C582C8CAC583CAA5
:10008200F0A3C8C582C8CAC583CADFE9DEE780BE5D
:0100B400004B
:00000001FF
