:0C00E8000A083F065B4F666D7D077F6FC6
:0800F500E4F5A012008F80FB6E
:1000B800E4FDFCC3ED9FEC9E5015E4FAFB0BBB007E
:0F00C800010AEB64784A70F50DBD00010C80E46D
:0100D7002206
:1000D800EF241360071470078508A0228509A02261
:10008F00E4FEF512F97590F0E59064F060137F14BB
:10009F001200B8AE9075900FE590640F60038590D5
:0900AF0012E5122EF9FF0200D83F
:03000000020003F8
:0C000300787FE4F6D8FD75811202004AF7
:10000F000200F5E493A3F8E493A34003F68001F212
:10001F0008DFF48029E493A3F85407240CC8C333F2
:10002F00C4540F4420C8834004F456800146F6DFC1
:10003F00E4800B01020408102040809000E8E47E69
:10004F00019360BCA3FF543F30E509541FFEE493B6
:10005F00A360010ECF54C025E060A840B8E493A37D
:10006F00FAE493A3F8E493A3C8C582C8CAC583CAA8
:10007F00F0A3C8C582C8CAC583CADFE9DEE780BE60
:0100F400000B
:00000001FF
