:0F00BB000112000A083F065B4F666D7D077F6FDD
:080003001200AB12009A80FB11
:1000AB00758906758CFF758AFFD2A9D2AFD28C22C7
:10009A0074082512F8E6F5A0E512B40A03E4F5128D
:0100AA002233
:03000B000200CB25
:0300CB00051232E9
:0300000002000EED
:0C000E00787FE4F6D8FD758112020055E1
:10001A00020003E493A3F8E493A34003F68001F2F9
:10002A0008DFF48029E493A3F85407240CC8C333E7
:10003A00C4540F4420C8834004F456800146F6DFB6
:10004A00E4800B01020408102040809000BBE47E8B
:10005A00019360BCA3FF543F30E509541FFEE493AB
:10006A00A360010ECF54C025E060A840B8E493A372
:10007A00FAE493A3F8E493A3C8C582C8CAC583CA9D
:10008A00F0A3C8C582C8CAC583CADFE9DEE780BE55
:0100CA000035
:00000001FF
