:1001BB000A0D3F065B4F666D7D077F6F04080E0DC2
:0901CB000B0702170000010C00F3
:10009A00E4F5191201E51201D5AE17AF187C037DFC
:1000AA00E8120108E4FD12019EAE17AF187C007D2C
:1000BA00641201087C007D0A120108AF057D011255
:1000CA00019EAE17AF187C007D0A1201087C007DE4
:1000DA000A120108AF057D0212019EAE17AF187C05
:1000EA00007D0A120108AF057D0312019EE518B4CE
:0E00FA0010A7E517B427A2E4F517F518809BB0
:0F01E500D2A675803FC2A6D2A775800FC2A722EF
:1001D500D2AFD2A9758901758C3C758AB0D28C22B3
:10017E00E4FDFCC3ED9FEC9E5015E4FAFB0BBB00B7
:0F018E00010AEB64464A70F50DBD00010C80E4D8
:01019D00223F
:10019E00D2A774082DF8E6F580C2A7D2A6740D2F4B
:0D01AE00F8E6F580C2A67F0A7E0002017E01
:03000B0002015D92
:10015D00C0E0C0D0758C3C758AB0050CE50CB414AC
:10016D000B0518E51870020517750C00D0D0D0E0FE
:01017D00324F
:0300000002000EED
:0C000E00787FE4F6D8FD758119020055DA
:10010800BC000BBE0029EF8DF084FFADF022E4CCDB
:10011800F875F008EF2FFFEE33FEEC33FCEE9DECA4
:10012800984005FCEE9DFE0FD5F0E9E4CEFD22EDEA
:10013800F8F5F0EE8420D21CFEADF075F008EF2F34
:10014800FFED33FD4007985006D5F0F222C398FD25
:050158000FD5F0EA22C2
:10001A0002009AE493A3F8E493A34003F68001F262
:10002A0008DFF48029E493A3F85407240CC8C333E7
:10003A00C4540F4420C8834004F456800146F6DFB6
:10004A00E4800B01020408102040809001BBE47E8A
:10005A00019360BCA3FF543F30E509541FFEE493AB
:10006A00A360010ECF54C025E060A840B8E493A372
:10007A00FAE493A3F8E493A3C8C582C8CAC583CA9D
:10008A00F0A3C8C582C8CAC583CADFE9DEE780BE55
:0101D400002A
:00000001FF
