:1000B5000108000113000A093F065B4F666D7D07C5
:0200C5007F6F4B
:080003001200D91200C880FBB5
:1000D900758901758C3C758AB0D2A9D2AFD28C22B0
:1000C80074092513F8E6F5A0E513B40A03E4F5135B
:0100D8002205
:03000B0002009A56
:10009A00C0E0C0D0758C3C758AB00508E508B41478
:0B00AA00057508000513D0D0D0E0322F
:0300000002000EED
:0C000E00787FE4F6D8FD758113020055E0
:10001A00020003E493A3F8E493A34003F68001F2F9
:10002A0008DFF48029E493A3F85407240CC8C333E7
:10003A00C4540F4420C8834004F456800146F6DFB6
:10004A00E4800B01020408102040809000B5E47E91
:10005A00019360BCA3FF543F30E509541FFEE493AB
:10006A00A360010ECF54C025E060A840B8E493A372
:10007A00FAE493A3F8E493A3C8C582C8CAC583CA9D
:10008A00F0A3C8C582C8CAC583CADFE9DEE780BE55
:0100C7000038
:00000001FF
