:03000000020003F8
:0C000300787FE4F6D8FD75811302004AF6
:0C00DE000A083F065B4F666D7D077F6FD0
:10008F00E4F512F513E4F512F51374082513F8E6E9
:10009F00F5A0F4F5807FE87E031200BE0513E5138B
:0F00AF0070020512C3940AE512940040DD80D65A
:1000BE00E4FDFCC3ED9FEC9E5015E4FAFB0BBB0078
:0F00CE00010AEB64784A70F50DBD00010C80E467
:0100DD002200
:10000F0002008FE493A3F8E493A34003F68001F278
:10001F0008DFF48029E493A3F85407240CC8C333F2
:10002F00C4540F4420C8834004F456800146F6DFC1
:10003F00E4800B01020408102040809000DEE47E73
:10004F00019360BCA3FF543F30E509541FFEE493B6
:10005F00A360010ECF54C025E060A840B8E493A37D
:10006F00FAE493A3F8E493A3C8C582C8CAC583CAA8
:10007F00F0A3C8C582C8CAC583CADFE9DEE780BE60
:0100EA000015
:00000001FF
